:060000000A128A11122809
:10000800FF00030883120313B4000408B5000A08AC
:10001800B6007E08B7000A128A11E92A0A128A1164
:10002800202C61200A128A1128200A128A11D03045
:100038002F210A128A1100302F210A128A1100304A
:100048002F210A128A113E291114831214080F391C
:10005800083A0319342814080F390B3A031D08000D
:100068008316111C0800342861200A128A112820DE
:100078000A128A11D0302F210A128A1101302F2139
:100088000A128A118312220EF039AD002308AD043A
:100098002D082F210A128A118312200EF039AD0083
:1000A800F61C5A282D17761D5A28AD162108AD04BE
:1000B8002D082F210A128A113E29831603131108CD
:1000C8001F39031D6128141D0800612861200A12C8
:1000D8008A1128200A128A11D0302F210A128A1177
:1000E8008312AC000E302F210A128A118312AC0041
:1000F800BC200A128A11D1302F210A128A118312C8
:10010800AC000F220A128A11AC0043210A128A118C
:1001180083122C080319BB28BC200A128A11D0307C
:100128002F210A128A1107302F210A128A118030D2
:100138002F210A128A1181302F210A128A11803048
:100148002F210A128A1180302F210A128A110030B9
:100158002F210A128A1100302F210A128A11003029
:100168002F210A128A1100302F210A128A113E29E2
:1001780083169114911C0800BE2861200A128A1166
:1001880028200A128A11D0302F210A128A11113020
:100198002F210A128A11BC200A128A11D1302F216C
:1001A8000A128A110F220A128A11AB0018220A12A7
:1001B8008A110F220A128A11AA0043210A128A11EF
:1001C8003E210A128A110630F90083122B0DAB0C5E
:1001D800AA0CF90BE9282B08B1002A08B000053051
:1001E800B200B301BD220A128A1183133108AB0091
:1001F8003008AA00AA0A0319AB0A2B0DAB0CAA0CEB
:100208000D30A500A001F613AB1F1129FF30AA0677
:10021800AB06AA0A0319AB0AF6172B08F8002A0836
:10022800F70093220A128A112608A100A108031DCB
:100238001F290A30A100F61F23290C30A100270826
:10024800A200A208031D2A290A30A2002808A30038
:100258002908A4000800F700770883129300941B6C
:10026800FF3483161418352961200A128A11111BCC
:10027800FE34003483161115111D08004029831619
:1002880091161116111E08004629F201F615F308F9
:10029800031D4B291E30F40006307302031C5D2930
:1002A8000430F20A72020318F611FA3044220A12D4
:1002B8008A11063075020318832994290330E6222F
:1002C8002402031C6A2902220A128A1115200A1222
:1002D8008A1138200A128A11902902220A128A11D8
:1002E8006D291E220A128A116D29F612B5210A12E9
:1002F8008A110230F60654220A128A116D297208F0
:10030800003A03196229013A03197129033A0319BA
:100318007529013A03197929FA30D6220A128A1165
:100328007208033A03199F29761CB2297610B52161
:100338000A128A11B229F61CA6290130E622A00069
:100348000230AA290230E622A0000430A1000B30B6
:10035800A2000A30A500A400A300F616F61D0800A6
:10036800502961200A128A1128200A128A11D030D5
:100378002F210A128A1100302F210A128A11BC205B
:100388000A128A11D1302F210A128A110F220A1259
:100398008A11F10018220A128A1171080F39831282
:1003A800A500710E0F39A4000F220A128A11F1005C
:1003B80018220A128A1171080F398312A300710ECC
:1003C8000F39A2000F220A128A11F10043210A12E2
:1003D8008A113E210A128A11F61071080F39831208
:1003E800A100711FFE29F6147611F11EFD2976155C
:1003F800F1127113710E0F39A00008000A30E622BD
:10040800A30A2302031C0800A3010630A20A220241
:100418000318A201080083169115141C112A9119BA
:10042800132A831213080800831691121116111E3D
:1004380008001B2A0A30E622A10A2102031C262AE8
:10044800A101A00AF61C392A20080319080021086E
:10045800023A031D312A0430F60603302102031C38
:1004680008000130A100A001080002302002031C8E
:10047800080004302102031C0800A101A0010800A3
:10048800FC001E30F400F30803190800F930FB00E3
:100498006400FB0B4C2A502A6400FC0B472A080016
:1004A800F6186E2A200B5C2A2108023A0319692AD9
:1004B800761D0800A00AA10AA10A0A302102031C1D
:1004C8000800F630A107A00A080076190800A00164
:1004D800A10108007611200803198B2A0230210295
:1004E800031C772A76150330210203187F2A02306D
:1004F8002002031C0800A003A103A1030A30210263
:10050800031C892A0A30A107A00376150800A10850
:10051800031D08000130A0000230A1000800A60158
:10052800A701A801A901F00105302902031C9E2A90
:100538007B30A90705302802031CA42A7B30A807B2
:1005480005302702031CAA2A7B30A707053026029C
:10055800031CB12A7B30A6070310F70DF80DA90D6F
:10056800A80DA70DA60DF00A103070020318080098
:10057800982AF701F801301CC72A3208F707031830
:10058800F80A3308F8070310B20DB30D0310B10CC5
:10059800B00C31083004031DBF2A7808B100770871
:1005A800B0000800FC001E30F400F508031908002C
:1005B800F930FB006400FB0BDE2AE22A6400FC0B26
:1005C800D92A08008312031308000B1D932B0B1163
:1005D8000830AF0A2F02031CFA2AAF01730FF30089
:1005E800750FF5000719F301871AF5010630AE0AF1
:1005F8002E020318AE010710612B851220080F3E4A
:100608000A128A1109240A128A118600F618761924
:100618000E2B0714F61E742B0514742B05102108D5
:10062800013E0A128A1109240A128A118600761AD2
:100638000714F61E742B8514742B85102208013EAE
:100648000A128A1109240A128A118600761A0714D6
:10065800F61E742B0515742B05112308013E0A128A
:100668008A1109240A128A118600761A0714761B41
:100678000714F61E742B8515742B85112408013E6A
:100688000A128A1109240A128A118600761A071496
:10069800F61E742B8714742B8710F618761D552BAD
:1006A80007142508013E0A128A1109240A128A1120
:1006B8008600F61E742B8516742B2E08003A031933
:1006C800012B013A0319122B033A0319212B013A82
:1006D8000319302B073A0319412B013A0319502B00
:1006E800761F7616F61D912B061C8D2BF208031D1E
:1006F8007F2B85128710720B832B05118511023011
:100708007202031C892B051085107208033A03191D
:1007180005117208033A03197612061876128B1C13
:100728009E2B8B10740803199D2BF40B9D2BF6112F
:10073800761376143708FE0036088A0035088400D8
:1007480034088300FF0E7F0E0900103083168500E1
:1007580001308600FC30870007309C0006309F007F
:10076800813081008312850186018701F60180307E
:10077800F80008300A128A113424093083169300CD
:100788000A128A116A200A128A11A03083128B0079
:10079800F6167614761CE22B7610761BD82B0A12E6
:1007A8008A11B5210A128A11761FDF2B0A128A11C3
:1007B800C1200A128A11F508031DDF2BF31FE92B4C
:1007C8000A128A1149210A128A1105307502031C7E
:0C07D800CE2B0A30F4004030F606CD2B8A
:10080000FE00FE1F082C83137E18831700080800C3
:100810000408FE0004308A007E08820700347E341B
:100820000C34B6349E34CC34DA34FA340E34FE341C
:10083000DE340034EC348034723400340C34B6349A
:10084000F001F101F201F301F401F501F601831366
:100850002030840030300A128A1144240A128A118E
:1008600083010A128A11A92BF7003F3083169405E1
:1008700083129401770894047808831694048312F1
:10088000871507169416080064008001840A040680
:08089000031900340406452C95
:0840000030002E0030003100F9
:02400E00313F40
:00000001FF
